{
  "address": "0x0000000000f34c7b95a557B2c96Ce0711266d81B",
  "abi": [
    {
      "inputs": [],
      "stateMutability": "nonpayable",
      "type": "constructor"
    },
    {
      "inputs": [
        {
          "internalType": "uint256",
          "name": "blockNumber",
          "type": "uint256"
        },
        {
          "internalType": "uint256",
          "name": "amount",
          "type": "uint256"
        },
        {
          "internalType": "uint256",
          "name": "packedFeesAndTypesAndBaseToken",
          "type": "uint256"
        },
        {
          "internalType": "address",
          "name": "poolA",
          "type": "address"
        },
        {
          "internalType": "address",
          "name": "poolB",
          "type": "address"
        }
      ],
      "name": "arbitrage_003xYAO9",
      "outputs": [],
      "stateMutability": "nonpayable",
      "type": "function"
    },
    {
      "inputs": [
        {
          "internalType": "address",
          "name": "contractAddress",
          "type": "address"
        },
        {
          "internalType": "uint256",
          "name": "amount0",
          "type": "uint256"
        },
        {
          "internalType": "uint256",
          "name": "amount1",
          "type": "uint256"
        },
        {
          "internalType": "bytes",
          "name": "data",
          "type": "bytes"
        }
      ],
      "name": "uniswapV2Call",
      "outputs": [],
      "stateMutability": "nonpayable",
      "type": "function"
    },
    {
      "inputs": [
        {
          "internalType": "int256",
          "name": "amount0Delta",
          "type": "int256"
        },
        {
          "internalType": "int256",
          "name": "amount1Delta",
          "type": "int256"
        },
        {
          "internalType": "bytes",
          "name": "data",
          "type": "bytes"
        }
      ],
      "name": "uniswapV3SwapCallback",
      "outputs": [],
      "stateMutability": "nonpayable",
      "type": "function"
    }
  ],
  "transactionHash": "0x06ed871b9e9ab8439c8e7ad2c119894d6bca47ce652f15fe5f4bb3b2ec566b37",
  "args": [],
  "numDeployments": 2,
  "solcInputHash": "c6fc2fc47a920c21a0c82bec8297874c",
  "bytecode": "0x608060405234801561001057600080fd5b5061170d806100206000396000f3fe608060405234801561001057600080fd5b506004361061003c5760003560e01c801561004157806310d1e85c14610056578063fa461e3314610069575b600080fd5b61005461004f366004611054565b61007c565b005b6100546100643660046110aa565b61015b565b610054610077366004611187565b610553565b844311156100d15760405162461bcd60e51b815260206004820152600560248201527f626c6f636b00000000000000000000000000000000000000000000000000000060448201526064015b60405180910390fd5b60a483901c600f166000036101485760a083901c600f16600103610100576100fb848484846108b6565b610154565b60405162461bcd60e51b815260206004820152600260248201527f4e5300000000000000000000000000000000000000000000000000000000000060448201526064016100c8565b6100fb84848484610a65565b5050505050565b60003390506000816001600160a01b0316630dfe16816040518163ffffffff1660e01b8152600401602060405180830381865afa1580156101a0573d6000803e3d6000fd5b505050506040513d601f19601f820116820180604052508101906101c4919061122f565b905060006101d484860186611282565b90506000826001600160a01b031682600001516001600160a01b0316146101fb578261025d565b836001600160a01b031663d21220a76040518163ffffffff1660e01b8152600401602060405180830381865afa158015610239573d6000803e3d6000fd5b505050506040513d601f19601f8201168201806040525081019061025d919061122f565b90506000881561026d578861026f565b875b9050600080856001600160a01b031685600001516001600160a01b0316149050846060015160ff1660000361032c5761032585602001518d8588600001516001600160a01b0316886001600160a01b0316106040518060400160405280600160ff1681526020018a6001600160a01b03168152506040516020016103119190815160ff1681526020918201516001600160a01b03169181019190915260400190565b604051602081830303815290604052610d3d565b91506104b6565b846060015160ff166001036104b65761034a84866020015185610e0b565b60008086602001516001600160a01b0316630902f1ac6040518163ffffffff1660e01b8152600401606060405180830381865afa15801561038f573d6000803e3d6000fd5b505050506040513d601f19601f820116820180604052508101906103b39190611354565b506dffffffffffffffffffffffffffff1691506dffffffffffffffffffffffffffff16915061040585846103e757836103e9565b825b856103f457836103f6565b845b8a608001518b60a00151610f4d565b935086602001516001600160a01b031663022c0d9f84610426576000610428565b855b856104335786610436565b60005b604080516000815260208101918290527fffffffff0000000000000000000000000000000000000000000000000000000060e086901b169091526104819291903090602481016113fc565b600060405180830381600087803b15801561049b57600080fd5b505af11580156104af573d6000803e3d6000fd5b5050505050505b8460c0015182116105095760405162461bcd60e51b815260206004820152600760248201527f2170726f6669740000000000000000000000000000000000000000000000000060448201526064016100c8565b61051c8560000151338760c00151610e0b565b610545856000015186604001516105408860c0015186610fa190919063ffffffff16565b610e0b565b505050505050505050505050565b80601f8151811061056657610566611434565b01602001517fff00000000000000000000000000000000000000000000000000000000000000167f0100000000000000000000000000000000000000000000000000000000000000036105ee576000818060200190518101906105c9919061144a565b90506105e8816020015133600087136105e25785610e0b565b86610e0b565b50505050565b60008180602001905181019061060491906114a9565b90506000336001600160a01b0316630dfe16816040518163ffffffff1660e01b8152600401602060405180830381865afa158015610646573d6000803e3d6000fd5b505050506040513d601f19601f8201168201806040525081019061066a919061122f565b90506000816001600160a01b031683602001516001600160a01b03161490506000816106965785610698565b865b90506000826106af576106aa8861156a565b6106b8565b6106b88761156a565b905060008086604001519050600080826001600160a01b0316630902f1ac6040518163ffffffff1660e01b8152600401606060405180830381865afa158015610705573d6000803e3d6000fd5b505050506040513d601f19601f820116820180604052508101906107299190611354565b506dffffffffffffffffffffffffffff1691506dffffffffffffffffffffffffffff16915060008761075b578261075d565b815b905060008861076c578261076e565b835b90506107858783838e608001518f60a00151610f4d565b9550846001600160a01b031663022c0d9f8a6107a25760006107a4565b875b8b6107af57886107b2565b60005b604080516000815260208101918290527fffffffff0000000000000000000000000000000000000000000000000000000060e086901b169091526107fd9291903090602481016113fc565b600060405180830381600087803b15801561081757600080fd5b505af115801561082b573d6000803e3d6000fd5b5050505050505050508281116108835760405162461bcd60e51b815260206004820152600760248201527f2170726f6669740000000000000000000000000000000000000000000000000060448201526064016100c8565b61089286602001513385610e0b565b602086015160608701516108ab91906105408487610fa1565b505050505050505050565b60008290506000816001600160a01b0316630dfe16816040518163ffffffff1660e01b8152600401602060405180830381865afa1580156108fb573d6000803e3d6000fd5b505050506040513d601f19601f8201168201806040525081019061091f919061122f565b90506001600160a01b03808616906000908316821461093e57826109a0565b836001600160a01b031663d21220a76040518163ffffffff1660e01b8152600401602060405180830381865afa15801561097c573d6000803e3d6000fd5b505050506040513d601f19601f820116820180604052508101906109a0919061122f565b6040805160c081018252600081526001600160a01b0385811660208084018290528a83168486015233606085015261ffff60b88e901c8116608086015260a88e901c1660a08501529351949091161193506108ab92899289928d928792610311929101600060c08201905060ff835116825260208301516001600160a01b0380821660208501528060408601511660408501528060608601511660608501525050608083015161ffff80821660808501528060a08601511660a0850152505092915050565b60008290506000816001600160a01b0316630dfe16816040518163ffffffff1660e01b8152600401602060405180830381865afa158015610aaa573d6000803e3d6000fd5b505050506040513d601f19601f82011682018060405250810190610ace919061122f565b6040805160e0810182526001600160a01b038089168083529087166020808401919091523383850152600f60a08b811c91909116606085015260b88b901c61ffff908116608086015260a88c901c81169185019190915260c084018c90529351949550909360d88a901c9360c88b901c1692600092610bb29201600060e0820190506001600160a01b038084511683528060208501511660208401528060408501511660408401525060ff6060840151166060830152608083015161ffff80821660808501528060a08601511660a0850152505060c083015160c083015292915050565b6040516020818303038152906040529050600080600080896001600160a01b0316630902f1ac6040518163ffffffff1660e01b8152600401606060405180830381865afa158015610c07573d6000803e3d6000fd5b505050506040513d601f19601f82011682018060405250810190610c2b9190611354565b506dffffffffffffffffffffffffffff1691506dffffffffffffffffffffffffffff169150886001600160a01b0316886001600160a01b031614610c7b57610c768e82848a8a610f4d565b610c7e565b60005b9350886001600160a01b0316886001600160a01b031614610ca0576000610cad565b610cad8e83838a8a610f4d565b6040517f022c0d9f0000000000000000000000000000000000000000000000000000000081529093506001600160a01b038b16925063022c0d9f9150610cfd9085908590309089906004016113fc565b600060405180830381600087803b158015610d1757600080fd5b505af1158015610d2b573d6000803e3d6000fd5b50505050505050505050505050505050565b6000806000876001600160a01b031663128acb088887610d5c8a610fc2565b89610d7b5773fffd8963efd1fc6a506488495d951d5263988d25610d82565b6401000276a45b896040518663ffffffff1660e01b8152600401610da39594939291906115a2565b60408051808303816000875af1158015610dc1573d6000803e3d6000fd5b505050506040513d601f19601f82011682018060405250810190610de591906115e7565b9150915084610df45781610df6565b805b610dff9061156a565b98975050505050505050565b604080516001600160a01b038481166024830152604480830185905283518084039091018152606490920183526020820180517bffffffffffffffffffffffffffffffffffffffffffffffffffffffff167fa9059cbb000000000000000000000000000000000000000000000000000000001790529151600092839290871691610e95919061160b565b6000604051808303816000865af19150503d8060008114610ed2576040519150601f19603f3d011682016040523d82523d6000602084013e610ed7565b606091505b5091509150818015610f01575080511580610f01575080806020019051810190610f019190611627565b6101545760405162461bcd60e51b815260206004820152600260248201527f535400000000000000000000000000000000000000000000000000000000000060448201526064016100c8565b600080610f5e8761ffff8616610ff4565b90506000610f6c8287610ff4565b90506000610f8883610f828a61ffff8916610ff4565b90611021565b9050610f948183611649565b9998505050505050505050565b600082610fae838261166b565b9150811115610fbc57600080fd5b92915050565b60007f80000000000000000000000000000000000000000000000000000000000000008210610ff057600080fd5b5090565b60008215806110185750818361100a8282611682565b92506110169083611649565b145b610fbc57600080fd5b60008261102e83826116bf565b9150811015610fbc57600080fd5b6001600160a01b038116811461105157600080fd5b50565b600080600080600060a0868803121561106c57600080fd5b853594506020860135935060408601359250606086013561108c8161103c565b9150608086013561109c8161103c565b809150509295509295909350565b6000806000806000608086880312156110c257600080fd5b85356110cd8161103c565b94506020860135935060408601359250606086013567ffffffffffffffff808211156110f857600080fd5b818801915088601f83011261110c57600080fd5b81358181111561111b57600080fd5b89602082850101111561112d57600080fd5b9699959850939650602001949392505050565b634e487b7160e01b600052604160045260246000fd5b604051601f8201601f1916810167ffffffffffffffff8111828210171561117f5761117f611140565b604052919050565b60008060006060848603121561119c57600080fd5b833592506020808501359250604085013567ffffffffffffffff808211156111c357600080fd5b818701915087601f8301126111d757600080fd5b8135818111156111e9576111e9611140565b6111fb84601f19601f84011601611156565b9150808252888482850101111561121157600080fd5b80848401858401376000848284010152508093505050509250925092565b60006020828403121561124157600080fd5b815161124c8161103c565b9392505050565b60ff8116811461105157600080fd5b61ffff8116811461105157600080fd5b803561127d81611262565b919050565b600060e0828403121561129457600080fd5b60405160e0810181811067ffffffffffffffff821117156112b7576112b7611140565b60405282356112c58161103c565b815260208301356112d58161103c565b602082015260408301356112e88161103c565b604082015260608301356112fb81611253565b606082015261130c60808401611272565b608082015261131d60a08401611272565b60a082015260c083013560c08201528091505092915050565b80516dffffffffffffffffffffffffffff8116811461127d57600080fd5b60008060006060848603121561136957600080fd5b61137284611336565b925061138060208501611336565b9150604084015163ffffffff8116811461139957600080fd5b809150509250925092565b60005b838110156113bf5781810151838201526020016113a7565b838111156105e85750506000910152565b600081518084526113e88160208601602086016113a4565b601f01601f19169290920160200192915050565b8481528360208201526001600160a01b038316604082015260806060820152600061142a60808301846113d0565b9695505050505050565b634e487b7160e01b600052603260045260246000fd5b60006040828403121561145c57600080fd5b6040516040810181811067ffffffffffffffff8211171561147f5761147f611140565b604052825161148d81611253565b8152602083015161149d8161103c565b60208201529392505050565b600060c082840312156114bb57600080fd5b60405160c0810181811067ffffffffffffffff821117156114de576114de611140565b60405282516114ec81611253565b815260208301516114fc8161103c565b6020820152604083015161150f8161103c565b604082015260608301516115228161103c565b6060820152608083015161153581611262565b608082015260a083015161154881611262565b60a08201529392505050565b634e487b7160e01b600052601160045260246000fd5b60007f8000000000000000000000000000000000000000000000000000000000000000820361159b5761159b611554565b5060000390565b60006001600160a01b038088168352861515602084015285604084015280851660608401525060a060808301526115dc60a08301846113d0565b979650505050505050565b600080604083850312156115fa57600080fd5b505080516020909101519092909150565b6000825161161d8184602087016113a4565b9190910192915050565b60006020828403121561163957600080fd5b8151801515811461124c57600080fd5b60008261166657634e487b7160e01b600052601260045260246000fd5b500490565b60008282101561167d5761167d611554565b500390565b6000817fffffffffffffffffffffffffffffffffffffffffffffffffffffffffffffffff04831182151516156116ba576116ba611554565b500290565b600082198211156116d2576116d2611554565b50019056fea2646970667358221220dfe0e8b8c5f5cf6de06985edcf61b8226bc4be3911ebac8d1d6ed7672eedfdb764736f6c634300080e0033",
  "devdoc": {
    "author": "h0tw4t3r.eth",
    "kind": "dev",
    "methods": {
      "arbitrage_003xYAO9(uint256,uint256,uint256,address,address)": {
        "details": "When you're playing with the method by hands don't forget to increase the target block",
        "params": {
          "amount": "Amount of tokens to run",
          "blockNumber": "Block number to target, revert if current block is bigger",
          "packedFeesAndTypesAndBaseToken": "Packed variable which consumes 32 bytes, with the next perspective from the back: 20byte base token address 1byte - packed with 4bit typeA and 4bit typeB (0 - UniswapV3, 1 - UniswapV2) 2byte feeDenominatorB, 2byte feeNumeratorB, 2byte feeDenominatorA, 2byte feeNumeratorA. 3 bytes are left and can be used in next versions ofthe contract",
          "poolA": "First pool to swap (A->???->A)",
          "poolB": "Second pool to swap (???->B->???)"
        }
      },
      "uniswapV2Call(address,uint256,uint256,bytes)": {
        "params": {
          "amount0": "- amount of token0 swapped (zero or value)",
          "amount1": "- amount of token1 swapped (zero or value)",
          "contractAddress": "- contract which triggered the swap (= address(this))",
          "data": "- packed FlashV2CallbackData"
        }
      },
      "uniswapV3SwapCallback(int256,int256,bytes)": {
        "details": "In the implementation you must pay the pool tokens owed for the swap. The caller of this method must be checked to be a UniswapV3Pool deployed by the canonical UniswapV3Factory. amount0Delta and amount1Delta can both be 0 if no tokens were swapped.",
        "params": {
          "amount0Delta": "The amount of token0 that was sent (negative) or must be received (positive) by the pool by the end of the swap. If positive, the callback must send that amount of token0 to the pool.",
          "amount1Delta": "The amount of token1 that was sent (negative) or must be received (positive) by the pool by the end of the swap. If positive, the callback must send that amount of token1 to the pool.",
          "data": "Any data passed through by the caller via the IUniswapV3PoolActions#swap call"
        }
      }
    },
    "title": "Arbitrageur contract",
    "version": 1
  },
  "userdoc": {
    "kind": "user",
    "methods": {
      "arbitrage_003xYAO9(uint256,uint256,uint256,address,address)": {
        "notice": "Arbitrage method"
      },
      "uniswapV2Call(address,uint256,uint256,bytes)": {
        "notice": "uniswapV2Call hook which is called before checking V2 pair reserves"
      },
      "uniswapV3SwapCallback(int256,int256,bytes)": {
        "notice": "Called to `msg.sender` after executing a swap via IUniswapV3Pool#swap."
      }
    },
    "version": 1
  },
  "storageLayout": {
    "storage": [],
    "types": null
  }
}