{
  "address": "0xf987d3EF8CE323bc5a4b05191EE49eaceC2b2767",
  "abi": [
    {
      "inputs": [],
      "stateMutability": "nonpayable",
      "type": "constructor"
    },
    {
      "inputs": [
        {
          "internalType": "uint256",
          "name": "blockNumber",
          "type": "uint256"
        },
        {
          "internalType": "uint256",
          "name": "amount",
          "type": "uint256"
        },
        {
          "internalType": "address",
          "name": "baseToken",
          "type": "address"
        },
        {
          "internalType": "address",
          "name": "poolA",
          "type": "address"
        },
        {
          "internalType": "address",
          "name": "poolB",
          "type": "address"
        },
        {
          "internalType": "uint8",
          "name": "inType",
          "type": "uint8"
        },
        {
          "internalType": "uint8",
          "name": "outType",
          "type": "uint8"
        }
      ],
      "name": "arbitrage",
      "outputs": [],
      "stateMutability": "nonpayable",
      "type": "function"
    },
    {
      "inputs": [
        {
          "internalType": "address",
          "name": "_sender",
          "type": "address"
        },
        {
          "internalType": "uint256",
          "name": "amount0",
          "type": "uint256"
        },
        {
          "internalType": "uint256",
          "name": "amount1",
          "type": "uint256"
        },
        {
          "internalType": "bytes",
          "name": "data",
          "type": "bytes"
        }
      ],
      "name": "uniswapV2Call",
      "outputs": [],
      "stateMutability": "nonpayable",
      "type": "function"
    },
    {
      "inputs": [
        {
          "internalType": "int256",
          "name": "amount0Delta",
          "type": "int256"
        },
        {
          "internalType": "int256",
          "name": "amount1Delta",
          "type": "int256"
        },
        {
          "internalType": "bytes",
          "name": "data",
          "type": "bytes"
        }
      ],
      "name": "uniswapV3SwapCallback",
      "outputs": [],
      "stateMutability": "nonpayable",
      "type": "function"
    }
  ],
  "transactionHash": "0x714a38e9b309131a8307d7cdb8e1ea63e36ef70fd9be50dddd9780b26e573499",
  "args": [],
  "numDeployments": 61,
  "solcInputHash": "6a2e6eb062748af8d36b2a6a302a005f",
  "bytecode": "0x608060405234801561001057600080fd5b5061171e806100206000396000f3fe608060405234801561001057600080fd5b50600436106100415760003560e01c806310d1e85c14610046578063ac6df4001461005b578063fa461e331461006e575b600080fd5b610059610054366004611079565b610081565b005b61005961006936600461111e565b610442565b61005961007c366004611212565b610522565b60003390506000816001600160a01b0316630dfe16816040518163ffffffff1660e01b8152600401602060405180830381865afa1580156100c6573d6000803e3d6000fd5b505050506040513d601f19601f820116820180604052508101906100ea91906112ba565b905060006100fa848601866112de565b90506000826001600160a01b031682600001516001600160a01b0316146101215782610183565b836001600160a01b031663d21220a76040518163ffffffff1660e01b8152600401602060405180830381865afa15801561015f573d6000803e3d6000fd5b505050506040513d601f19601f8201168201806040525081019061018391906112ba565b9050600088156101935788610195565b875b9050600080856001600160a01b031685600001516001600160a01b0316149050846040015160ff1660000361022557602085810151865160408051808201825260018082526001600160a01b038a81169287018381528451978801929092529051811686840152825180870384018152606090960190925261021e94889392909216119061088a565b91506103ab565b846040015160ff166001036103ab576102438486602001518561096a565b60008086602001516001600160a01b0316630902f1ac6040518163ffffffff1660e01b8152600401606060405180830381865afa158015610288573d6000803e3d6000fd5b505050506040513d601f19601f820116820180604052508101906102ac9190611361565b506dffffffffffffffffffffffffffff1691506dffffffffffffffffffffffffffff1691506102fa85846102e057836102e2565b825b856102ed57836102ef565b845b6103e56103e8610ab3565b935086602001516001600160a01b031663022c0d9f8461031b57600061031d565b855b85610328578661032b565b60005b604080516000815260208101918290527fffffffff0000000000000000000000000000000000000000000000000000000060e086901b16909152610376929190309060248101611409565b600060405180830381600087803b15801561039057600080fd5b505af11580156103a4573d6000803e3d6000fd5b5050505050505b846060015182116104035760405162461bcd60e51b815260206004820152600760248201527f2170726f6669740000000000000000000000000000000000000000000000000060448201526064015b60405180910390fd5b610416856000015133876060015161096a565b61043485600001518d87606001518561042f9190611457565b61096a565b505050505050505050505050565b864311156104925760405162461bcd60e51b815260206004820152600560248201527f626c6f636b00000000000000000000000000000000000000000000000000000060448201526064016103fa565b8160ff16600003610501578060ff166001036104b9576104b486868686610aff565b610519565b60405162461bcd60e51b815260206004820152600260248201527f4e5300000000000000000000000000000000000000000000000000000000000060448201526064016103fa565b8160ff166001036104b9576104b48686868685610d47565b50505050505050565b80601f815181106105355761053561146e565b01602001517fff00000000000000000000000000000000000000000000000000000000000000167f0100000000000000000000000000000000000000000000000000000000000000036105bd576000818060200190518101906105989190611484565b90506105b7816020015133600087136105b1578561096a565b8661096a565b50505050565b6000818060200190518101906105d391906114e3565b90506000336001600160a01b0316630dfe16816040518163ffffffff1660e01b8152600401602060405180830381865afa158015610615573d6000803e3d6000fd5b505050506040513d601f19601f8201168201806040525081019061063991906112ba565b90506000816001600160a01b031683602001516001600160a01b03161490506000816106655785610667565b865b905060008261067e576106798861154a565b610687565b6106878761154a565b905060008086604001519050600080826001600160a01b0316630902f1ac6040518163ffffffff1660e01b8152600401606060405180830381865afa1580156106d4573d6000803e3d6000fd5b505050506040513d601f19601f820116820180604052508101906106f89190611361565b506dffffffffffffffffffffffffffff1691506dffffffffffffffffffffffffffff16915060008761072a578261072c565b815b905060008861073b578261073d565b835b90506107508783836103e56103e8610ab3565b9550846001600160a01b031663022c0d9f8a61076d57600061076f565b875b8b61077a578861077d565b60005b604080516000815260208101918290527fffffffff0000000000000000000000000000000000000000000000000000000060e086901b169091526107c8929190309060248101611409565b600060405180830381600087803b1580156107e257600080fd5b505af11580156107f6573d6000803e3d6000fd5b50505050505050505082811161084e5760405162461bcd60e51b815260206004820152600760248201527f2170726f6669740000000000000000000000000000000000000000000000000060448201526064016103fa565b61085d8660200151338561096a565b60006108698285610fc6565b905061087e876020015188606001518361096a565b50505050505050505050565b6000806000866001600160a01b031663128acb0830876108a98a610fe7565b896108d2576108cd600173fffd8963efd1fc6a506488495d951d5263988d26611582565b6108e2565b6108e26401000276a360016115aa565b896040518663ffffffff1660e01b81526004016109039594939291906115d5565b60408051808303816000875af1158015610921573d6000803e3d6000fd5b505050506040513d601f19601f82011682018060405250810190610945919061160f565b91509150846109545781610956565b805b61095f9061154a565b979650505050505050565b604080516001600160a01b038481166024830152604480830185905283518084039091018152606490920183526020820180517bffffffffffffffffffffffffffffffffffffffffffffffffffffffff167fa9059cbb0000000000000000000000000000000000000000000000000000000017905291516000928392908716916109f49190611633565b6000604051808303816000865af19150503d8060008114610a31576040519150601f19603f3d011682016040523d82523d6000602084013e610a36565b606091505b5091509150818015610a60575080511580610a60575080806020019051810190610a60919061164f565b610aac5760405162461bcd60e51b815260206004820152600260248201527f535400000000000000000000000000000000000000000000000000000000000060448201526064016103fa565b5050505050565b600080610ac08785611019565b90506000610ace8287611019565b90506000610ae683610ae08a88611019565b90611046565b9050610af28183611671565b9998505050505050505050565b60008290506000816001600160a01b0316630dfe16816040518163ffffffff1660e01b8152600401602060405180830381865afa158015610b44573d6000803e3d6000fd5b505050506040513d601f19601f82011682018060405250810190610b6891906112ba565b90506000816001600160a01b0316866001600160a01b031614610b8b5781610bed565b826001600160a01b031663d21220a76040518163ffffffff1660e01b8152600401602060405180830381865afa158015610bc9573d6000803e3d6000fd5b505050506040513d601f19601f82011682018060405250810190610bed91906112ba565b6001600160a01b0316866001600160a01b0316109050826001600160a01b031663128acb088583610c1d8b610fe7565b85610c4657610c41600173fffd8963efd1fc6a506488495d951d5263988d26611582565b610c56565b610c566401000276a360016115aa565b60408051608081018252600081526001600160a01b03808f16602080840191909152908d16828401523360608301529151610ccb9201815160ff1681526020808301516001600160a01b0390811691830191909152604080840151821690830152606092830151169181019190915260800190565b6040516020818303038152906040526040518663ffffffff1660e01b8152600401610cfa9594939291906115d5565b60408051808303816000875af1158015610d18573d6000803e3d6000fd5b505050506040513d601f19601f82011682018060405250810190610d3c919061160f565b505050505050505050565b60008390506000816001600160a01b0316630dfe16816040518163ffffffff1660e01b8152600401602060405180830381865afa158015610d8c573d6000803e3d6000fd5b505050506040513d601f19601f82011682018060405250810190610db091906112ba565b905060006040518060800160405280886001600160a01b03168152602001866001600160a01b031681526020018560ff16815260200189815250604051602001610e35919060006080820190506001600160a01b038084511683528060208501511660208401525060ff60408401511660408301526060830151606083015292915050565b6040516020818303038152906040529050600080600080866001600160a01b0316630902f1ac6040518163ffffffff1660e01b8152600401606060405180830381865afa158015610e8a573d6000803e3d6000fd5b505050506040513d601f19601f82011682018060405250810190610eae9190611361565b506dffffffffffffffffffffffffffff1691506dffffffffffffffffffffffffffff169150856001600160a01b03168b6001600160a01b031614610f0257610efd8c82846103e56103e8610ab3565b610f05565b60005b9350856001600160a01b03168b6001600160a01b031614610f27576000610f38565b610f388c83836103e56103e8610ab3565b6040517f022c0d9f0000000000000000000000000000000000000000000000000000000081529093506001600160a01b038816925063022c0d9f9150610f88908590859030908990600401611409565b600060405180830381600087803b158015610fa257600080fd5b505af1158015610fb6573d6000803e3d6000fd5b5050505050505050505050505050565b600082610fd38382611457565b9150811115610fe157600080fd5b92915050565b60007f8000000000000000000000000000000000000000000000000000000000000000821061101557600080fd5b5090565b600082158061103d5750818361102f8282611693565b925061103b9083611671565b145b610fe157600080fd5b60008261105383826116d0565b9150811015610fe157600080fd5b6001600160a01b038116811461107657600080fd5b50565b60008060008060006080868803121561109157600080fd5b853561109c81611061565b94506020860135935060408601359250606086013567ffffffffffffffff808211156110c757600080fd5b818801915088601f8301126110db57600080fd5b8135818111156110ea57600080fd5b8960208285010111156110fc57600080fd5b9699959850939650602001949392505050565b60ff8116811461107657600080fd5b600080600080600080600060e0888a03121561113957600080fd5b8735965060208801359550604088013561115281611061565b9450606088013561116281611061565b9350608088013561117281611061565b925060a08801356111828161110f565b915060c08801356111928161110f565b8091505092959891949750929550565b634e487b7160e01b600052604160045260246000fd5b6040516080810167ffffffffffffffff811182821017156111db576111db6111a2565b60405290565b604051601f8201601f1916810167ffffffffffffffff8111828210171561120a5761120a6111a2565b604052919050565b60008060006060848603121561122757600080fd5b833592506020808501359250604085013567ffffffffffffffff8082111561124e57600080fd5b818701915087601f83011261126257600080fd5b813581811115611274576112746111a2565b61128684601f19601f840116016111e1565b9150808252888482850101111561129c57600080fd5b80848401858401376000848284010152508093505050509250925092565b6000602082840312156112cc57600080fd5b81516112d781611061565b9392505050565b6000608082840312156112f057600080fd5b6112f86111b8565b823561130381611061565b8152602083013561131381611061565b602082015260408301356113268161110f565b60408201526060928301359281019290925250919050565b80516dffffffffffffffffffffffffffff8116811461135c57600080fd5b919050565b60008060006060848603121561137657600080fd5b61137f8461133e565b925061138d6020850161133e565b9150604084015163ffffffff811681146113a657600080fd5b809150509250925092565b60005b838110156113cc5781810151838201526020016113b4565b838111156105b75750506000910152565b600081518084526113f58160208601602086016113b1565b601f01601f19169290920160200192915050565b8481528360208201526001600160a01b038316604082015260806060820152600061143760808301846113dd565b9695505050505050565b634e487b7160e01b600052601160045260246000fd5b60008282101561146957611469611441565b500390565b634e487b7160e01b600052603260045260246000fd5b60006040828403121561149657600080fd5b6040516040810181811067ffffffffffffffff821117156114b9576114b96111a2565b60405282516114c78161110f565b815260208301516114d781611061565b60208201529392505050565b6000608082840312156114f557600080fd5b6114fd6111b8565b82516115088161110f565b8152602083015161151881611061565b6020820152604083015161152b81611061565b6040820152606083015161153e81611061565b60608201529392505050565b60007f8000000000000000000000000000000000000000000000000000000000000000820361157b5761157b611441565b5060000390565b60006001600160a01b03838116908316818110156115a2576115a2611441565b039392505050565b60006001600160a01b038083168185168083038211156115cc576115cc611441565b01949350505050565b60006001600160a01b038088168352861515602084015285604084015280851660608401525060a0608083015261095f60a08301846113dd565b6000806040838503121561162257600080fd5b505080516020909101519092909150565b600082516116458184602087016113b1565b9190910192915050565b60006020828403121561166157600080fd5b815180151581146112d757600080fd5b60008261168e57634e487b7160e01b600052601260045260246000fd5b500490565b6000817fffffffffffffffffffffffffffffffffffffffffffffffffffffffffffffffff04831182151516156116cb576116cb611441565b500290565b600082198211156116e3576116e3611441565b50019056fea2646970667358221220338c202b936dc5b92f94e700249c67d455f38c018120e369d7f2ee49561c2ccb64736f6c634300080e0033",
  "devdoc": {
    "kind": "dev",
    "methods": {
      "uniswapV3SwapCallback(int256,int256,bytes)": {
        "details": "In the implementation you must pay the pool tokens owed for the swap. The caller of this method must be checked to be a UniswapV3Pool deployed by the canonical UniswapV3Factory. amount0Delta and amount1Delta can both be 0 if no tokens were swapped.",
        "params": {
          "amount0Delta": "The amount of token0 that was sent (negative) or must be received (positive) by the pool by the end of the swap. If positive, the callback must send that amount of token0 to the pool.",
          "amount1Delta": "The amount of token1 that was sent (negative) or must be received (positive) by the pool by the end of the swap. If positive, the callback must send that amount of token1 to the pool.",
          "data": "Any data passed through by the caller via the IUniswapV3PoolActions#swap call"
        }
      }
    },
    "version": 1
  },
  "userdoc": {
    "kind": "user",
    "methods": {
      "uniswapV3SwapCallback(int256,int256,bytes)": {
        "notice": "Called to `msg.sender` after executing a swap via IUniswapV3Pool#swap."
      }
    },
    "version": 1
  },
  "storageLayout": {
    "storage": [],
    "types": null
  }
}