{
  "address": "0xA8E5878d7adDee98DF0680ae3463567619Ce8eFe",
  "abi": [
    {
      "inputs": [
        {
          "internalType": "contract ISwapRouterExtended",
          "name": "_routerV3",
          "type": "address"
        },
        {
          "internalType": "contract IUniswapV2Router02",
          "name": "_routerV2",
          "type": "address"
        }
      ],
      "stateMutability": "nonpayable",
      "type": "constructor"
    },
    {
      "inputs": [],
      "name": "WETH9",
      "outputs": [
        {
          "internalType": "address",
          "name": "",
          "type": "address"
        }
      ],
      "stateMutability": "view",
      "type": "function"
    },
    {
      "inputs": [
        {
          "internalType": "uint256",
          "name": "amount",
          "type": "uint256"
        },
        {
          "internalType": "address",
          "name": "baseToken",
          "type": "address"
        },
        {
          "internalType": "address",
          "name": "pair",
          "type": "address"
        },
        {
          "internalType": "address",
          "name": "pool",
          "type": "address"
        }
      ],
      "name": "arbitrageV2toV3",
      "outputs": [],
      "stateMutability": "nonpayable",
      "type": "function"
    },
    {
      "inputs": [
        {
          "internalType": "uint256",
          "name": "amount",
          "type": "uint256"
        },
        {
          "internalType": "address",
          "name": "baseToken",
          "type": "address"
        },
        {
          "internalType": "address",
          "name": "pair",
          "type": "address"
        },
        {
          "internalType": "address",
          "name": "pool",
          "type": "address"
        }
      ],
      "name": "arbitrageV3toV2",
      "outputs": [],
      "stateMutability": "nonpayable",
      "type": "function"
    },
    {
      "inputs": [],
      "name": "factory",
      "outputs": [
        {
          "internalType": "address",
          "name": "",
          "type": "address"
        }
      ],
      "stateMutability": "view",
      "type": "function"
    },
    {
      "inputs": [],
      "name": "refundETH",
      "outputs": [],
      "stateMutability": "payable",
      "type": "function"
    },
    {
      "inputs": [
        {
          "internalType": "address",
          "name": "token",
          "type": "address"
        },
        {
          "internalType": "uint256",
          "name": "amountMinimum",
          "type": "uint256"
        },
        {
          "internalType": "address",
          "name": "recipient",
          "type": "address"
        }
      ],
      "name": "sweepToken",
      "outputs": [],
      "stateMutability": "payable",
      "type": "function"
    },
    {
      "inputs": [
        {
          "internalType": "address",
          "name": "sender",
          "type": "address"
        },
        {
          "internalType": "uint256",
          "name": "amount0",
          "type": "uint256"
        },
        {
          "internalType": "uint256",
          "name": "amount1",
          "type": "uint256"
        },
        {
          "internalType": "bytes",
          "name": "data",
          "type": "bytes"
        }
      ],
      "name": "uniswapV2Call",
      "outputs": [],
      "stateMutability": "nonpayable",
      "type": "function"
    },
    {
      "inputs": [
        {
          "internalType": "int256",
          "name": "amount0Delta",
          "type": "int256"
        },
        {
          "internalType": "int256",
          "name": "amount1Delta",
          "type": "int256"
        },
        {
          "internalType": "bytes",
          "name": "data",
          "type": "bytes"
        }
      ],
      "name": "uniswapV3SwapCallback",
      "outputs": [],
      "stateMutability": "nonpayable",
      "type": "function"
    },
    {
      "inputs": [
        {
          "internalType": "uint256",
          "name": "amountMinimum",
          "type": "uint256"
        },
        {
          "internalType": "address",
          "name": "recipient",
          "type": "address"
        }
      ],
      "name": "unwrapWETH9",
      "outputs": [],
      "stateMutability": "payable",
      "type": "function"
    },
    {
      "stateMutability": "payable",
      "type": "receive"
    }
  ],
  "transactionHash": "0xd5d86ecd25c924ff5b416c94c740428fce1a5853ee12a556bf4774c7e4160099",
  "args": [
    "0xE592427A0AEce92De3Edee1F18E0157C05861564",
    "0x7a250d5630b4cf539739df2c5dacb4c659f2488d"
  ],
  "numDeployments": 17,
  "solcInputHash": "e5c27055a99b70ef1ee55eb615b6a3d3",
  "bytecode": "0x6101006040523480156200001257600080fd5b506040516200282638038062002826833981016040819052620000359162000173565b816001600160a01b031663c45a01556040518163ffffffff1660e01b815260040160206040518083038186803b1580156200006f57600080fd5b505afa15801562000084573d6000803e3d6000fd5b505050506040513d601f19601f82011682018060405250810190620000aa91906200014d565b826001600160a01b0316634aa4a4fc6040518163ffffffff1660e01b815260040160206040518083038186803b158015620000e457600080fd5b505afa158015620000f9573d6000803e3d6000fd5b505050506040513d601f19601f820116820180604052508101906200011f91906200014d565b6001600160601b0319606092831b811660805290821b811660a05292811b831660c0521b1660e052620001ca565b6000602082840312156200015f578081fd5b81516200016c81620001b1565b9392505050565b6000806040838503121562000186578081fd5b82516200019381620001b1565b6020840151909250620001a681620001b1565b809150509250929050565b6001600160a01b0381168114620001c757600080fd5b50565b60805160601c60a05160601c60c05160601c60e05160601c6125df62000247600039806103125280610c875280610d825280611293528061138452508061049352806104ba528061113052508060aa528061069d528061079352806108205280611a245280611a6a5280611ade525080610eb152506125df6000f3fe60806040526004361061009a5760003560e01c806366bd261f11610069578063c45a01551161004e578063c45a0155146101c9578063df2ab5bb146101de578063fa461e33146101f15761011e565b806366bd261f146101895780637e34c86c146101a95761011e565b806310d1e85c1461012357806312210e8a1461014357806349404b7c1461014b5780634aa4a4fc1461015e5761011e565b3661011e57336001600160a01b037f0000000000000000000000000000000000000000000000000000000000000000161461011c576040805162461bcd60e51b815260206004820152600960248201527f4e6f742057455448390000000000000000000000000000000000000000000000604482015290519081900360640190fd5b005b600080fd5b34801561012f57600080fd5b5061011c61013e366004611f3d565b610211565b61011c610687565b61011c6101593660046121d7565b610699565b34801561016a57600080fd5b5061017361081e565b60405161018091906122e6565b60405180910390f35b34801561019557600080fd5b5061011c6101a4366004612206565b610842565b3480156101b557600080fd5b5061011c6101c4366004612206565b610a63565b3480156101d557600080fd5b50610173610eaf565b61011c6101ec366004611efc565b610ed3565b3480156101fd57600080fd5b5061011c61020c366004612069565b610fbc565b60003390506000816001600160a01b0316630dfe16816040518163ffffffff1660e01b815260040160206040518083038186803b15801561025157600080fd5b505afa158015610265573d6000803e3d6000fd5b505050506040513d601f19601f820116820180604052508101906102899190611ed9565b90506000826001600160a01b031663d21220a76040518163ffffffff1660e01b815260040160206040518083038186803b1580156102c657600080fd5b505afa1580156102da573d6000803e3d6000fd5b505050506040513d601f19601f820116820180604052508101906102fe9190611ed9565b9050600061030e858701876120ba565b90507f00000000000000000000000000000000000000000000000000000000000000006001600160a01b031663c45a01556040518163ffffffff1660e01b815260040160206040518083038186803b15801561036957600080fd5b505afa15801561037d573d6000803e3d6000fd5b505050506040513d601f19601f820116820180604052508101906103a19190611ed9565b6001600160a01b031663e6a4390584846040518363ffffffff1660e01b81526004016103ce92919061233f565b60206040518083038186803b1580156103e657600080fd5b505afa1580156103fa573d6000803e3d6000fd5b505050506040513d601f19601f8201168201806040525081019061041e9190611ed9565b6001600160a01b0316336001600160a01b0316146104575760405162461bcd60e51b815260040161044e906123c7565b60405180910390fd5b805160006001600160a01b03808316908616146104745784610476565b835b90508160008b15610487578b610489565b8a5b905060006104b8847f0000000000000000000000000000000000000000000000000000000000000000846114aa565b7f00000000000000000000000000000000000000000000000000000000000000006001600160a01b031663414bf389604051806101000160405280876001600160a01b03168152602001866001600160a01b0316815260200189602001516001600160a01b031663ddca3f436040518163ffffffff1660e01b815260040160206040518083038186803b15801561054e57600080fd5b505afa158015610562573d6000803e3d6000fd5b505050506040513d601f19601f82011682018060405250810190610586919061219c565b62ffffff168152602001306001600160a01b031681526020014281526020018581526020016000815260200160006001600160a01b03168152506040518263ffffffff1660e01b81526004016105dc91906123fe565b602060405180830381600087803b1580156105f657600080fd5b505af115801561060a573d6000803e3d6000fd5b505050506040513d601f19601f8201168201806040525081019061062e91906121bf565b9050856060015181116106535760405162461bcd60e51b815260040161044e90612359565b610662858a8860600151611641565b61067785876040015188606001518403611641565b5050505050505050505050505050565b47156106975761069733476117d1565b565b60007f00000000000000000000000000000000000000000000000000000000000000006001600160a01b03166370a08231306040518263ffffffff1660e01b815260040180826001600160a01b0316815260200191505060206040518083038186803b15801561070857600080fd5b505afa15801561071c573d6000803e3d6000fd5b505050506040513d602081101561073257600080fd5b505190508281101561078b576040805162461bcd60e51b815260206004820152601260248201527f496e73756666696369656e742057455448390000000000000000000000000000604482015290519081900360640190fd5b8015610819577f00000000000000000000000000000000000000000000000000000000000000006001600160a01b0316632e1a7d4d826040518263ffffffff1660e01b815260040180828152602001915050600060405180830381600087803b1580156107f757600080fd5b505af115801561080b573d6000803e3d6000fd5b5050505061081982826117d1565b505050565b7f000000000000000000000000000000000000000000000000000000000000000081565b6000816001600160a01b0316630dfe16816040518163ffffffff1660e01b815260040160206040518083038186803b15801561087d57600080fd5b505afa158015610891573d6000803e3d6000fd5b505050506040513d601f19601f820116820180604052508101906108b59190611ed9565b90506000826001600160a01b031663d21220a76040518163ffffffff1660e01b815260040160206040518083038186803b1580156108f257600080fd5b505afa158015610906573d6000803e3d6000fd5b505050506040513d601f19601f8201168201806040525081019061092a9190611ed9565b90506000826001600160a01b0316866001600160a01b03161461094d578261094f565b815b6001600160a01b0316866001600160a01b0316109050836001600160a01b031663128acb08308361097f8b6118da565b8561099e5773fffd8963efd1fc6a506488495d951d5263988d256109a5565b6401000276a45b604080516060810182526001600160a01b03808f1682528d16602080830191909152338284015291516109d892016124ac565b6040516020818303038152906040526040518663ffffffff1660e01b8152600401610a079594939291906122fa565b6040805180830381600087803b158015610a2057600080fd5b505af1158015610a34573d6000803e3d6000fd5b505050506040513d601f19601f82011682018060405250810190610a589190612046565b505050505050505050565b6001600160a01b038216610a895760405162461bcd60e51b815260040161044e90612390565b6000826001600160a01b0316630dfe16816040518163ffffffff1660e01b815260040160206040518083038186803b158015610ac457600080fd5b505afa158015610ad8573d6000803e3d6000fd5b505050506040513d601f19601f82011682018060405250810190610afc9190611ed9565b90506000836001600160a01b031663d21220a76040518163ffffffff1660e01b815260040160206040518083038186803b158015610b3957600080fd5b505afa158015610b4d573d6000803e3d6000fd5b505050506040513d601f19601f82011682018060405250810190610b719190611ed9565b905060006040518060800160405280876001600160a01b03168152602001856001600160a01b03168152602001336001600160a01b0316815260200188815250604051602001610bc1919061246d565b60408051601f198184030181526002808452606084018352909350600092916020830190803683370190505090508681600081518110610bfd57fe5b6001600160a01b03928316602091820292909201015287811690851614610c245783610c26565b825b81600181518110610c3357fe5b6001600160a01b03928316602091820292909201015260009088811690861614610d2b576040517fd06ca61f0000000000000000000000000000000000000000000000000000000081526001600160a01b037f0000000000000000000000000000000000000000000000000000000000000000169063d06ca61f90610cbe908c9086906004016124db565b60006040518083038186803b158015610cd657600080fd5b505afa158015610cea573d6000803e3d6000fd5b505050506040513d6000823e601f3d908101601f19168201604052610d129190810190611fa5565b600181518110610d1e57fe5b6020026020010151610d2e565b60005b90506000856001600160a01b0316896001600160a01b031614610d52576000610e22565b6040517fd06ca61f0000000000000000000000000000000000000000000000000000000081526001600160a01b037f0000000000000000000000000000000000000000000000000000000000000000169063d06ca61f90610db9908d9087906004016124db565b60006040518083038186803b158015610dd157600080fd5b505afa158015610de5573d6000803e3d6000fd5b505050506040513d6000823e601f3d908101601f19168201604052610e0d9190810190611fa5565b600181518110610e1957fe5b60200260200101515b9050610e2d8261190c565b610e368161190c565b6040517f022c0d9f0000000000000000000000000000000000000000000000000000000081526001600160a01b0389169063022c0d9f90610e81908590859030908a90600401612538565b600060405180830381600087803b158015610e9b57600080fd5b505af1158015610677573d6000803e3d6000fd5b7f000000000000000000000000000000000000000000000000000000000000000081565b6000836001600160a01b03166370a08231306040518263ffffffff1660e01b815260040180826001600160a01b0316815260200191505060206040518083038186803b158015610f2257600080fd5b505afa158015610f36573d6000803e3d6000fd5b505050506040513d6020811015610f4c57600080fd5b5051905082811015610fa5576040805162461bcd60e51b815260206004820152601260248201527f496e73756666696369656e7420746f6b656e0000000000000000000000000000604482015290519081900360640190fd5b8015610fb657610fb6848383611641565b50505050565b6000610fca82840184612131565b90506000336001600160a01b0316630dfe16816040518163ffffffff1660e01b815260040160206040518083038186803b15801561100757600080fd5b505afa15801561101b573d6000803e3d6000fd5b505050506040513d601f19601f8201168201806040525081019061103f9190611ed9565b90506000336001600160a01b031663d21220a76040518163ffffffff1660e01b815260040160206040518083038186803b15801561107c57600080fd5b505afa158015611090573d6000803e3d6000fd5b505050506040513d601f19601f820116820180604052508101906110b49190611ed9565b90506000336001600160a01b031663ddca3f436040518163ffffffff1660e01b815260040160206040518083038186803b1580156110f157600080fd5b505afa158015611105573d6000803e3d6000fd5b505050506040513d601f19601f82011682018060405250810190611129919061219c565b90506111f67f00000000000000000000000000000000000000000000000000000000000000006001600160a01b031663c45a01556040518163ffffffff1660e01b815260040160206040518083038186803b15801561118757600080fd5b505afa15801561119b573d6000803e3d6000fd5b505050506040513d601f19601f820116820180604052508101906111bf9190611ed9565b6040518060600160405280866001600160a01b03168152602001856001600160a01b031681526020018462ffffff1681525061197e565b506000836001600160a01b031685600001516001600160a01b03161461121c578761121e565b885b90506000846001600160a01b031686600001516001600160a01b031614611248578960000361124d565b886000035b905061125c60008b13836119a7565b61126960008a13826119a7565b6112b8856001600160a01b031687600001516001600160a01b03161461128f5785611291565b845b7f0000000000000000000000000000000000000000000000000000000000000000836114aa565b60408051600280825260608201835260009283929190602083019080368337019050509050866001600160a01b031688600001516001600160a01b0316146113005786611302565b855b8160008151811061130f57fe5b6001600160a01b03928316602091820292909201015288518116908816146113375785611339565b865b8160018151811061134657fe5b6001600160a01b0392831660209182029290920101526040517f38ed17390000000000000000000000000000000000000000000000000000000081527f0000000000000000000000000000000000000000000000000000000000000000909116906338ed1739906113c49086906000908690309042906004016124fc565b600060405180830381600087803b1580156113de57600080fd5b505af11580156113f2573d6000803e3d6000fd5b505050506040513d6000823e601f3d908101601f1916820160405261141a9190810190611fa5565b60018151811061142657fe5b60200260200101519150508281116114505760405162461bcd60e51b815260040161044e90612359565b865161145d9030856114aa565b865161146b90303386611a22565b60006114778285611bb2565b9050611488886000015130836114aa565b61149c8860000151308a6040015184611a22565b505050505050505050505050565b604080516001600160a01b038481166024830152604480830185905283518084039091018152606490920183526020820180517bffffffffffffffffffffffffffffffffffffffffffffffffffffffff167f095ea7b3000000000000000000000000000000000000000000000000000000001781529251825160009485949389169392918291908083835b602083106115545780518252601f199092019160209182019101611535565b6001836020036101000a0380198251168184511680821785525050505050509050019150506000604051808303816000865af19150503d80600081146115b6576040519150601f19603f3d011682016040523d82523d6000602084013e6115bb565b606091505b50915091508180156115e95750805115806115e957508080602001905160208110156115e657600080fd5b50515b61163a576040805162461bcd60e51b815260206004820152600260248201527f5341000000000000000000000000000000000000000000000000000000000000604482015290519081900360640190fd5b5050505050565b604080516001600160a01b038481166024830152604480830185905283518084039091018152606490920183526020820180517bffffffffffffffffffffffffffffffffffffffffffffffffffffffff167fa9059cbb000000000000000000000000000000000000000000000000000000001781529251825160009485949389169392918291908083835b602083106116eb5780518252601f1990920191602091820191016116cc565b6001836020036101000a0380198251168184511680821785525050505050509050019150506000604051808303816000865af19150503d806000811461174d576040519150601f19603f3d011682016040523d82523d6000602084013e611752565b606091505b5091509150818015611780575080511580611780575080806020019051602081101561177d57600080fd5b50515b61163a576040805162461bcd60e51b815260206004820152600260248201527f5354000000000000000000000000000000000000000000000000000000000000604482015290519081900360640190fd5b604080516000808252602082019092526001600160a01b0384169083906040518082805190602001908083835b6020831061181d5780518252601f1990920191602091820191016117fe565b6001836020036101000a03801982511681845116808217855250505050505090500191505060006040518083038185875af1925050503d806000811461187f576040519150601f19603f3d011682016040523d82523d6000602084013e611884565b606091505b5050905080610819576040805162461bcd60e51b815260206004820152600360248201527f5354450000000000000000000000000000000000000000000000000000000000604482015290519081900360640190fd5b60007f8000000000000000000000000000000000000000000000000000000000000000821061190857600080fd5b5090565b6040805160248082018490528251808303909101815260449091019091526020810180517bffffffffffffffffffffffffffffffffffffffffffffffffffffffff167ff5b1bba90000000000000000000000000000000000000000000000000000000017905261197b90611bc2565b50565b600061198a8383611be3565b9050336001600160a01b038216146119a157600080fd5b92915050565b60408051831515602482015260448082018490528251808303909101815260649091019091526020810180517bffffffffffffffffffffffffffffffffffffffffffffffffffffffff167f364b6a9200000000000000000000000000000000000000000000000000000000179052611a1e90611bc2565b5050565b7f00000000000000000000000000000000000000000000000000000000000000006001600160a01b0316846001600160a01b0316148015611a635750804710155b15611b85577f00000000000000000000000000000000000000000000000000000000000000006001600160a01b031663d0e30db0826040518263ffffffff1660e01b81526004016000604051808303818588803b158015611ac357600080fd5b505af1158015611ad7573d6000803e3d6000fd5b50505050507f00000000000000000000000000000000000000000000000000000000000000006001600160a01b031663a9059cbb83836040518363ffffffff1660e01b815260040180836001600160a01b0316815260200182815260200192505050602060405180830381600087803b158015611b5357600080fd5b505af1158015611b67573d6000803e3d6000fd5b505050506040513d6020811015611b7d57600080fd5b50610fb69050565b6001600160a01b038316301415611ba657611ba1848383611641565b610fb6565b610fb684848484611cf2565b808203828111156119a157600080fd5b80516a636f6e736f6c652e6c6f67602083016000808483855afa5050505050565b600081602001516001600160a01b031682600001516001600160a01b031610611c0b57600080fd5b50805160208083015160409384015184516001600160a01b0394851681850152939091168385015262ffffff166060808401919091528351808403820181526080840185528051908301207fff0000000000000000000000000000000000000000000000000000000000000060a085015294901b7fffffffffffffffffffffffffffffffffffffffff0000000000000000000000001660a183015260b58201939093527fe34f199b19b2b4f47f68442619d555527d244f78a3297ea89325f843f87b8b5460d5808301919091528251808303909101815260f5909101909152805191012090565b604080516001600160a01b0385811660248301528481166044830152606480830185905283518084039091018152608490920183526020820180517bffffffffffffffffffffffffffffffffffffffffffffffffffffffff167f23b872dd00000000000000000000000000000000000000000000000000000000178152925182516000948594938a169392918291908083835b60208310611da45780518252601f199092019160209182019101611d85565b6001836020036101000a0380198251168184511680821785525050505050509050019150506000604051808303816000865af19150503d8060008114611e06576040519150601f19603f3d011682016040523d82523d6000602084013e611e0b565b606091505b5091509150818015611e39575080511580611e395750808060200190516020811015611e3657600080fd5b50515b611e8a576040805162461bcd60e51b815260206004820152600360248201527f5354460000000000000000000000000000000000000000000000000000000000604482015290519081900360640190fd5b505050505050565b60008083601f840112611ea3578182fd5b50813567ffffffffffffffff811115611eba578182fd5b602083019150836020828501011115611ed257600080fd5b9250929050565b600060208284031215611eea578081fd5b8151611ef581612594565b9392505050565b600080600060608486031215611f10578182fd5b8335611f1b81612594565b9250602084013591506040840135611f3281612594565b809150509250925092565b600080600080600060808688031215611f54578081fd5b8535611f5f81612594565b94506020860135935060408601359250606086013567ffffffffffffffff811115611f88578182fd5b611f9488828901611e92565b969995985093965092949392505050565b60006020808385031215611fb7578182fd5b825167ffffffffffffffff80821115611fce578384fd5b818501915085601f830112611fe1578384fd5b815181811115611fed57fe5b8381029150611ffd848301612570565b8181528481019084860184860187018a1015612017578788fd5b8795505b8386101561203957805183526001959095019491860191860161201b565b5098975050505050505050565b60008060408385031215612058578182fd5b505080516020909101519092909150565b6000806000806060858703121561207e578384fd5b8435935060208501359250604085013567ffffffffffffffff8111156120a2578283fd5b6120ae87828801611e92565b95989497509550505050565b6000608082840312156120cb578081fd5b6040516080810181811067ffffffffffffffff821117156120e857fe5b60405282356120f681612594565b8152602083013561210681612594565b6020820152604083013561211981612594565b60408201526060928301359281019290925250919050565b600060608284031215612142578081fd5b6040516060810181811067ffffffffffffffff8211171561215f57fe5b604052823561216d81612594565b8152602083013561217d81612594565b6020820152604083013561219081612594565b60408201529392505050565b6000602082840312156121ad578081fd5b815162ffffff81168114611ef5578182fd5b6000602082840312156121d0578081fd5b5051919050565b600080604083850312156121e9578182fd5b8235915060208301356121fb81612594565b809150509250929050565b6000806000806080858703121561221b578182fd5b84359350602085013561222d81612594565b9250604085013561223d81612594565b9150606085013561224d81612594565b939692955090935050565b6000815180845260208085019450808401835b838110156122905781516001600160a01b03168752958201959082019060010161226b565b509495945050505050565b60008151808452815b818110156122c0576020818501810151868301820152016122a4565b818111156122d15782602083870101525b50601f01601f19169290920160200192915050565b6001600160a01b0391909116815260200190565b60006001600160a01b038088168352861515602084015285604084015280851660608401525060a0608083015261233460a083018461229b565b979650505050505050565b6001600160a01b0392831681529116602082015260400190565b60208082526007908201527f2170726f66697400000000000000000000000000000000000000000000000000604082015260600190565b60208082526005908201527f2170616972000000000000000000000000000000000000000000000000000000604082015260600190565b60208082526007908201527f2173656e64657200000000000000000000000000000000000000000000000000604082015260600190565b6000610100820190506001600160a01b0380845116835280602085015116602084015262ffffff60408501511660408401528060608501511660608401526080840151608084015260a084015160a084015260c084015160c08401528060e08501511660e08401525092915050565b60006080820190506001600160a01b03808451168352806020850151166020840152806040850151166040840152506060830151606083015292915050565b81516001600160a01b039081168252602080840151821690830152604092830151169181019190915260600190565b6000838252604060208301526124f46040830184612258565b949350505050565b600086825285602083015260a0604083015261251b60a0830186612258565b6001600160a01b0394909416606083015250608001529392505050565b60008582528460208301526001600160a01b038416604083015260806060830152612566608083018461229b565b9695505050505050565b60405181810167ffffffffffffffff8111828210171561258c57fe5b604052919050565b6001600160a01b038116811461197b57600080fdfea2646970667358221220a0492398979cbaa7324d07258c550b037a065bdaed365a0f69690a377a83d1dd64736f6c63430007060033",
  "devdoc": {
    "kind": "dev",
    "methods": {
      "refundETH()": {
        "details": "Useful for bundling with mint or increase liquidity that uses ether, or exact output swaps that use ether for the input amount"
      },
      "sweepToken(address,uint256,address)": {
        "details": "The amountMinimum parameter prevents malicious contracts from stealing the token from users",
        "params": {
          "amountMinimum": "The minimum amount of token required for a transfer",
          "recipient": "The destination address of the token",
          "token": "The contract address of the token which will be transferred to `recipient`"
        }
      },
      "uniswapV3SwapCallback(int256,int256,bytes)": {
        "details": "In the implementation you must pay the pool tokens owed for the swap. The caller of this method must be checked to be a UniswapV3Pool deployed by the canonical UniswapV3Factory. amount0Delta and amount1Delta can both be 0 if no tokens were swapped.",
        "params": {
          "amount0Delta": "The amount of token0 that was sent (negative) or must be received (positive) by the pool by the end of the swap. If positive, the callback must send that amount of token0 to the pool.",
          "amount1Delta": "The amount of token1 that was sent (negative) or must be received (positive) by the pool by the end of the swap. If positive, the callback must send that amount of token1 to the pool.",
          "data": "Any data passed through by the caller via the IUniswapV3PoolActions#swap call"
        }
      },
      "unwrapWETH9(uint256,address)": {
        "details": "The amountMinimum parameter prevents malicious contracts from stealing WETH9 from users.",
        "params": {
          "amountMinimum": "The minimum amount of WETH9 to unwrap",
          "recipient": "The address receiving ETH"
        }
      }
    },
    "version": 1
  },
  "userdoc": {
    "kind": "user",
    "methods": {
      "refundETH()": {
        "notice": "Refunds any ETH balance held by this contract to the `msg.sender`"
      },
      "sweepToken(address,uint256,address)": {
        "notice": "Transfers the full amount of a token held by this contract to recipient"
      },
      "uniswapV3SwapCallback(int256,int256,bytes)": {
        "notice": "Called to `msg.sender` after executing a swap via IUniswapV3Pool#swap."
      },
      "unwrapWETH9(uint256,address)": {
        "notice": "Unwraps the contract's WETH9 balance and sends it to recipient as ETH."
      }
    },
    "version": 1
  },
  "storageLayout": {
    "storage": [],
    "types": null
  }
}