{
  "address": "0xB6aD438a80249caB2771991169dB834Db79BA7F6",
  "abi": [
    {
      "inputs": [],
      "stateMutability": "nonpayable",
      "type": "constructor"
    },
    {
      "inputs": [
        {
          "internalType": "uint256",
          "name": "blockNumber",
          "type": "uint256"
        },
        {
          "internalType": "uint256",
          "name": "amount",
          "type": "uint256"
        },
        {
          "internalType": "address",
          "name": "baseToken",
          "type": "address"
        },
        {
          "internalType": "address",
          "name": "poolA",
          "type": "address"
        },
        {
          "internalType": "address",
          "name": "poolB",
          "type": "address"
        },
        {
          "internalType": "uint8",
          "name": "typeA",
          "type": "uint8"
        },
        {
          "internalType": "uint8",
          "name": "typeB",
          "type": "uint8"
        }
      ],
      "name": "arbitrage",
      "outputs": [],
      "stateMutability": "nonpayable",
      "type": "function"
    },
    {
      "inputs": [
        {
          "internalType": "address",
          "name": "contractAddress",
          "type": "address"
        },
        {
          "internalType": "uint256",
          "name": "amount0",
          "type": "uint256"
        },
        {
          "internalType": "uint256",
          "name": "amount1",
          "type": "uint256"
        },
        {
          "internalType": "bytes",
          "name": "data",
          "type": "bytes"
        }
      ],
      "name": "uniswapV2Call",
      "outputs": [],
      "stateMutability": "nonpayable",
      "type": "function"
    },
    {
      "inputs": [
        {
          "internalType": "int256",
          "name": "amount0Delta",
          "type": "int256"
        },
        {
          "internalType": "int256",
          "name": "amount1Delta",
          "type": "int256"
        },
        {
          "internalType": "bytes",
          "name": "data",
          "type": "bytes"
        }
      ],
      "name": "uniswapV3SwapCallback",
      "outputs": [],
      "stateMutability": "nonpayable",
      "type": "function"
    }
  ],
  "transactionHash": "0x19591fb8ffc5e796ebbff129fde4fc93c6bf65157f8307271bda247ea7aee8cb",
  "args": [],
  "numDeployments": 62,
  "solcInputHash": "3a9ff232e8f208427907e7723ad6e4b5",
  "bytecode": "0x608060405234801561001057600080fd5b5061168b806100206000396000f3fe608060405234801561001057600080fd5b50600436106100415760003560e01c806310d1e85c14610046578063ac6df4001461005b578063fa461e331461006e575b600080fd5b610059610054366004611008565b610081565b005b6100596100693660046110ad565b61047a565b61005961007c366004611178565b61055a565b60003390506000816001600160a01b0316630dfe16816040518163ffffffff1660e01b8152600401602060405180830381865afa1580156100c6573d6000803e3d6000fd5b505050506040513d601f19601f820116820180604052508101906100ea9190611220565b905060006100fa84860186611244565b90506000826001600160a01b031682600001516001600160a01b0316146101215782610183565b836001600160a01b031663d21220a76040518163ffffffff1660e01b8152600401602060405180830381865afa15801561015f573d6000803e3d6000fd5b505050506040513d601f19601f820116820180604052508101906101839190611220565b9050600088156101935788610195565b875b9050600080856001600160a01b031685600001516001600160a01b0316149050846060015160ff166000036102525761024b85602001518d8588600001516001600160a01b0316886001600160a01b0316106040518060400160405280600160ff1681526020018a6001600160a01b03168152506040516020016102379190815160ff1681526020918201516001600160a01b03169181019190915260400190565b6040516020818303038152906040526108b9565b91506103d8565b846060015160ff166001036103d85761027084866020015185610987565b60008086602001516001600160a01b0316630902f1ac6040518163ffffffff1660e01b8152600401606060405180830381865afa1580156102b5573d6000803e3d6000fd5b505050506040513d601f19601f820116820180604052508101906102d991906112f8565b506dffffffffffffffffffffffffffff1691506dffffffffffffffffffffffffffff169150610327858461030d578361030f565b825b8561031a578361031c565b845b6103e56103e8610ad0565b935086602001516001600160a01b031663022c0d9f8461034857600061034a565b855b856103555786610358565b60005b604080516000815260208101918290527fffffffff0000000000000000000000000000000000000000000000000000000060e086901b169091526103a39291903090602481016113a0565b600060405180830381600087803b1580156103bd57600080fd5b505af11580156103d1573d6000803e3d6000fd5b5050505050505b846080015182116104305760405162461bcd60e51b815260206004820152600760248201527f2170726f6669740000000000000000000000000000000000000000000000000060448201526064015b60405180910390fd5b6104438560000151338760800151610987565b61046c85600001518660400151610467886080015186610b1c90919063ffffffff16565b610987565b505050505050505050505050565b864311156104ca5760405162461bcd60e51b815260206004820152600560248201527f626c6f636b0000000000000000000000000000000000000000000000000000006044820152606401610427565b8160ff16600003610539578060ff166001036104f1576104ec86868686610b3d565b610551565b60405162461bcd60e51b815260206004820152600260248201527f4e530000000000000000000000000000000000000000000000000000000000006044820152606401610427565b8160ff166001036104f1576104ec8686868685610cdc565b50505050505050565b80601f8151811061056d5761056d6113d8565b01602001517fff00000000000000000000000000000000000000000000000000000000000000167f0100000000000000000000000000000000000000000000000000000000000000036105f5576000818060200190518101906105d091906113ee565b90506105ef816020015133600087136105e95785610987565b86610987565b50505050565b60008180602001905181019061060b919061144d565b90506000336001600160a01b0316630dfe16816040518163ffffffff1660e01b8152600401602060405180830381865afa15801561064d573d6000803e3d6000fd5b505050506040513d601f19601f820116820180604052508101906106719190611220565b90506000816001600160a01b031683602001516001600160a01b031614905060008161069d578561069f565b865b90506000826106b6576106b1886114e8565b6106bf565b6106bf876114e8565b905060008086604001519050600080826001600160a01b0316630902f1ac6040518163ffffffff1660e01b8152600401606060405180830381865afa15801561070c573d6000803e3d6000fd5b505050506040513d601f19601f8201168201806040525081019061073091906112f8565b506dffffffffffffffffffffffffffff1691506dffffffffffffffffffffffffffff1691506000876107625782610764565b815b90506000886107735782610775565b835b90506107888783836103e56103e8610ad0565b9550846001600160a01b031663022c0d9f8a6107a55760006107a7565b875b8b6107b257886107b5565b60005b604080516000815260208101918290527fffffffff0000000000000000000000000000000000000000000000000000000060e086901b169091526108009291903090602481016113a0565b600060405180830381600087803b15801561081a57600080fd5b505af115801561082e573d6000803e3d6000fd5b5050505050505050508281116108865760405162461bcd60e51b815260206004820152600760248201527f2170726f666974000000000000000000000000000000000000000000000000006044820152606401610427565b61089586602001513385610987565b602086015160608701516108ae91906104678487610b1c565b505050505050505050565b6000806000876001600160a01b031663128acb0888876108d88a610f76565b896108f75773fffd8963efd1fc6a506488495d951d5263988d256108fe565b6401000276a45b896040518663ffffffff1660e01b815260040161091f959493929190611520565b60408051808303816000875af115801561093d573d6000803e3d6000fd5b505050506040513d601f19601f820116820180604052508101906109619190611565565b91509150846109705781610972565b805b61097b906114e8565b98975050505050505050565b604080516001600160a01b038481166024830152604480830185905283518084039091018152606490920183526020820180517bffffffffffffffffffffffffffffffffffffffffffffffffffffffff167fa9059cbb000000000000000000000000000000000000000000000000000000001790529151600092839290871691610a119190611589565b6000604051808303816000865af19150503d8060008114610a4e576040519150601f19603f3d011682016040523d82523d6000602084013e610a53565b606091505b5091509150818015610a7d575080511580610a7d575080806020019051810190610a7d91906115a5565b610ac95760405162461bcd60e51b815260206004820152600260248201527f53540000000000000000000000000000000000000000000000000000000000006044820152606401610427565b5050505050565b600080610add8785610fa8565b90506000610aeb8287610fa8565b90506000610b0383610afd8a88610fa8565b90610fd5565b9050610b0f81836115c7565b9998505050505050505050565b600082610b2983826115e9565b9150811115610b3757600080fd5b92915050565b60008290506000816001600160a01b0316630dfe16816040518163ffffffff1660e01b8152600401602060405180830381865afa158015610b82573d6000803e3d6000fd5b505050506040513d601f19601f82011682018060405250810190610ba69190611220565b90506000816001600160a01b0316866001600160a01b031614610bc95781610c2b565b826001600160a01b031663d21220a76040518163ffffffff1660e01b8152600401602060405180830381865afa158015610c07573d6000803e3d6000fd5b505050506040513d601f19601f82011682018060405250810190610c2b9190611220565b6001600160a01b0316866001600160a01b0316109050610cd2858589846040518060800160405280600060ff1681526020018c6001600160a01b031681526020018a6001600160a01b03168152602001336001600160a01b03168152506040516020016102379190815160ff1681526020808301516001600160a01b0390811691830191909152604080840151821690830152606092830151169181019190915260800190565b5050505050505050565b60008390506000816001600160a01b0316630dfe16816040518163ffffffff1660e01b8152600401602060405180830381865afa158015610d21573d6000803e3d6000fd5b505050506040513d601f19601f82011682018060405250810190610d459190611220565b905060006040518060a00160405280886001600160a01b03168152602001866001600160a01b03168152602001336001600160a01b031681526020018560ff16815260200189815250604051602001610de59190600060a0820190506001600160a01b038084511683528060208501511660208401528060408501511660408401525060ff60608401511660608301526080830151608083015292915050565b6040516020818303038152906040529050600080600080866001600160a01b0316630902f1ac6040518163ffffffff1660e01b8152600401606060405180830381865afa158015610e3a573d6000803e3d6000fd5b505050506040513d601f19601f82011682018060405250810190610e5e91906112f8565b506dffffffffffffffffffffffffffff1691506dffffffffffffffffffffffffffff169150856001600160a01b03168b6001600160a01b031614610eb257610ead8c82846103e56103e8610ad0565b610eb5565b60005b9350856001600160a01b03168b6001600160a01b031614610ed7576000610ee8565b610ee88c83836103e56103e8610ad0565b6040517f022c0d9f0000000000000000000000000000000000000000000000000000000081529093506001600160a01b038816925063022c0d9f9150610f389085908590309089906004016113a0565b600060405180830381600087803b158015610f5257600080fd5b505af1158015610f66573d6000803e3d6000fd5b5050505050505050505050505050565b60007f80000000000000000000000000000000000000000000000000000000000000008210610fa457600080fd5b5090565b6000821580610fcc57508183610fbe8282611600565b9250610fca90836115c7565b145b610b3757600080fd5b600082610fe2838261163d565b9150811015610b3757600080fd5b6001600160a01b038116811461100557600080fd5b50565b60008060008060006080868803121561102057600080fd5b853561102b81610ff0565b94506020860135935060408601359250606086013567ffffffffffffffff8082111561105657600080fd5b818801915088601f83011261106a57600080fd5b81358181111561107957600080fd5b89602082850101111561108b57600080fd5b9699959850939650602001949392505050565b60ff8116811461100557600080fd5b600080600080600080600060e0888a0312156110c857600080fd5b873596506020880135955060408801356110e181610ff0565b945060608801356110f181610ff0565b9350608088013561110181610ff0565b925060a08801356111118161109e565b915060c08801356111218161109e565b8091505092959891949750929550565b634e487b7160e01b600052604160045260246000fd5b604051601f8201601f1916810167ffffffffffffffff8111828210171561117057611170611131565b604052919050565b60008060006060848603121561118d57600080fd5b833592506020808501359250604085013567ffffffffffffffff808211156111b457600080fd5b818701915087601f8301126111c857600080fd5b8135818111156111da576111da611131565b6111ec84601f19601f84011601611147565b9150808252888482850101111561120257600080fd5b80848401858401376000848284010152508093505050509250925092565b60006020828403121561123257600080fd5b815161123d81610ff0565b9392505050565b600060a0828403121561125657600080fd5b60405160a0810181811067ffffffffffffffff8211171561127957611279611131565b604052823561128781610ff0565b8152602083013561129781610ff0565b602082015260408301356112aa81610ff0565b604082015260608301356112bd8161109e565b60608201526080928301359281019290925250919050565b80516dffffffffffffffffffffffffffff811681146112f357600080fd5b919050565b60008060006060848603121561130d57600080fd5b611316846112d5565b9250611324602085016112d5565b9150604084015163ffffffff8116811461133d57600080fd5b809150509250925092565b60005b8381101561136357818101518382015260200161134b565b838111156105ef5750506000910152565b6000815180845261138c816020860160208601611348565b601f01601f19169290920160200192915050565b8481528360208201526001600160a01b03831660408201526080606082015260006113ce6080830184611374565b9695505050505050565b634e487b7160e01b600052603260045260246000fd5b60006040828403121561140057600080fd5b6040516040810181811067ffffffffffffffff8211171561142357611423611131565b60405282516114318161109e565b8152602083015161144181610ff0565b60208201529392505050565b60006080828403121561145f57600080fd5b6040516080810181811067ffffffffffffffff8211171561148257611482611131565b60405282516114908161109e565b815260208301516114a081610ff0565b602082015260408301516114b381610ff0565b604082015260608301516114c681610ff0565b60608201529392505050565b634e487b7160e01b600052601160045260246000fd5b60007f80000000000000000000000000000000000000000000000000000000000000008203611519576115196114d2565b5060000390565b60006001600160a01b038088168352861515602084015285604084015280851660608401525060a0608083015261155a60a0830184611374565b979650505050505050565b6000806040838503121561157857600080fd5b505080516020909101519092909150565b6000825161159b818460208701611348565b9190910192915050565b6000602082840312156115b757600080fd5b8151801515811461123d57600080fd5b6000826115e457634e487b7160e01b600052601260045260246000fd5b500490565b6000828210156115fb576115fb6114d2565b500390565b6000817fffffffffffffffffffffffffffffffffffffffffffffffffffffffffffffffff0483118215151615611638576116386114d2565b500290565b60008219821115611650576116506114d2565b50019056fea2646970667358221220b502245321ad4dcdec64582e138e4e0b0e71e8e50bb227a38c53f8069b36897964736f6c634300080e0033",
  "devdoc": {
    "author": "h0tw4t3r.eth",
    "kind": "dev",
    "methods": {
      "arbitrage(uint256,uint256,address,address,address,uint8,uint8)": {
        "details": "When you're playing with the method by hands don't forget to increase the target block",
        "params": {
          "amount": "Amount of tokens to run",
          "baseToken": "Base token of arbitrage (i.e WETH->???->WETH)",
          "blockNumber": "Block number to target, revert if current block is bigger",
          "poolA": "First pool to swap (A->???->A)",
          "poolB": "Second pool to swap (???->B->???)",
          "typeA": "Type of the DEX (0 - UniswapV3, 1 - UniswapV2)"
        }
      },
      "uniswapV2Call(address,uint256,uint256,bytes)": {
        "params": {
          "amount0": "- amount of token0 swapped (zero or value)",
          "amount1": "- amount of token1 swapped (zero or value)",
          "contractAddress": "- contract which triggered the swap (= address(this))",
          "data": "- packed FlashV2CallbackData"
        }
      },
      "uniswapV3SwapCallback(int256,int256,bytes)": {
        "details": "In the implementation you must pay the pool tokens owed for the swap. The caller of this method must be checked to be a UniswapV3Pool deployed by the canonical UniswapV3Factory. amount0Delta and amount1Delta can both be 0 if no tokens were swapped.",
        "params": {
          "amount0Delta": "The amount of token0 that was sent (negative) or must be received (positive) by the pool by the end of the swap. If positive, the callback must send that amount of token0 to the pool.",
          "amount1Delta": "The amount of token1 that was sent (negative) or must be received (positive) by the pool by the end of the swap. If positive, the callback must send that amount of token1 to the pool.",
          "data": "Any data passed through by the caller via the IUniswapV3PoolActions#swap call"
        }
      }
    },
    "title": "Arbitrageur contract",
    "version": 1
  },
  "userdoc": {
    "kind": "user",
    "methods": {
      "arbitrage(uint256,uint256,address,address,address,uint8,uint8)": {
        "notice": "Arbitrage method"
      },
      "uniswapV2Call(address,uint256,uint256,bytes)": {
        "notice": "uniswapV2Call hook which is called before checking V2 pair reserves"
      },
      "uniswapV3SwapCallback(int256,int256,bytes)": {
        "notice": "Called to `msg.sender` after executing a swap via IUniswapV3Pool#swap."
      }
    },
    "version": 1
  },
  "storageLayout": {
    "storage": [],
    "types": null
  }
}