{
  "address": "0xFAd707E7A61B280beA15Df44018725D941d91B33",
  "abi": [
    {
      "inputs": [
        {
          "internalType": "address",
          "name": "_lens",
          "type": "address"
        }
      ],
      "stateMutability": "nonpayable",
      "type": "constructor"
    },
    {
      "inputs": [
        {
          "internalType": "address",
          "name": "_pool",
          "type": "address"
        }
      ],
      "name": "getNeededV3Info",
      "outputs": [
        {
          "internalType": "uint24",
          "name": "fee",
          "type": "uint24"
        },
        {
          "internalType": "uint160",
          "name": "sqrtPriceX96",
          "type": "uint160"
        },
        {
          "internalType": "int24",
          "name": "tick",
          "type": "int24"
        },
        {
          "internalType": "uint128",
          "name": "liquidity",
          "type": "uint128"
        }
      ],
      "stateMutability": "view",
      "type": "function"
    },
    {
      "inputs": [
        {
          "internalType": "address",
          "name": "pool",
          "type": "address"
        },
        {
          "internalType": "int16",
          "name": "tickBitmapIndexStart",
          "type": "int16"
        },
        {
          "internalType": "int16",
          "name": "tickBitmapIndexEnd",
          "type": "int16"
        }
      ],
      "name": "getPopulatedTicks",
      "outputs": [
        {
          "components": [
            {
              "internalType": "int24",
              "name": "tick",
              "type": "int24"
            },
            {
              "internalType": "int128",
              "name": "liquidityNet",
              "type": "int128"
            },
            {
              "internalType": "uint128",
              "name": "liquidityGross",
              "type": "uint128"
            }
          ],
          "internalType": "struct ITickLens.PopulatedTick[]",
          "name": "populatedTicks",
          "type": "tuple[]"
        }
      ],
      "stateMutability": "view",
      "type": "function"
    }
  ],
  "transactionHash": "0x060addd4a002c15aad1c4ed80ce0245c493af7db389c7966b48bf898b078d432",
  "args": [
    "0xbfd8137f7d1516d3ea5ca83523914859ec47f573"
  ],
  "numDeployments": 3,
  "solcInputHash": "3481bb62adf73dd4ee18c311b63071dd",
  "bytecode": "0x608060405234801561001057600080fd5b5060405161094038038061094083398101604081905261002f91610054565b600080546001600160a01b0319166001600160a01b0392909216919091179055610084565b60006020828403121561006657600080fd5b81516001600160a01b038116811461007d57600080fd5b9392505050565b6108ad806100936000396000f3fe608060405234801561001057600080fd5b50600436106100365760003560e01c8063356916a41461003b578063f45e81ec146100a9575b600080fd5b61004e61004936600461048f565b6100c9565b6040805162ffffff909516855273ffffffffffffffffffffffffffffffffffffffff909316602085015260029190910b918301919091526fffffffffffffffffffffffffffffffff1660608201526080015b60405180910390f35b6100bc6100b73660046104c3565b610257565b6040516100a09190610508565b60008060008060008590508073ffffffffffffffffffffffffffffffffffffffff1663ddca3f436040518163ffffffff1660e01b8152600401602060405180830381865afa15801561011f573d6000803e3d6000fd5b505050506040513d601f19601f820116820180604052508101906101439190610579565b94508073ffffffffffffffffffffffffffffffffffffffff16633850c7bd6040518163ffffffff1660e01b815260040160e060405180830381865afa158015610190573d6000803e3d6000fd5b505050506040513d601f19601f820116820180604052508101906101b491906105c2565b5050604080517f1a68650200000000000000000000000000000000000000000000000000000000815290519599509397505073ffffffffffffffffffffffffffffffffffffffff851693631a686502936004808201945060209350908290030181865afa158015610229573d6000803e3d6000fd5b505050506040513d601f19601f8201168201806040525081019061024d919061067c565b9150509193509193565b60605b8160010b8360010b1361032c57600080546040517f351fb47800000000000000000000000000000000000000000000000000000000815273ffffffffffffffffffffffffffffffffffffffff8781166004830152600187900b60248301529091169063351fb47890604401600060405180830381865afa1580156102e2573d6000803e3d6000fd5b505050506040513d6000823e601f3d908101601f1916820160405261030a9190810190610707565b90506103168282610333565b91505082806103249061080f565b93505061025a565b9392505050565b6060600082518451610345919061082f565b67ffffffffffffffff81111561035d5761035d610697565b6040519080825280602002602001820160405280156103a857816020015b604080516060810182526000808252602080830182905292820152825260001990920191018161037b5790505b50905060005b8451811015610401578481815181106103c9576103c9610847565b60200260200101518282815181106103e3576103e3610847565b602002602001018190525080806103f99061085d565b9150506103ae565b60005b84518110156104605784816104188161085d565b92508151811061042a5761042a610847565b602002602001015183838061043e9061085d565b94508151811061045057610450610847565b6020026020010181905250610404565b5090949350505050565b73ffffffffffffffffffffffffffffffffffffffff8116811461048c57600080fd5b50565b6000602082840312156104a157600080fd5b813561032c8161046a565b8035600181900b81146104be57600080fd5b919050565b6000806000606084860312156104d857600080fd5b83356104e38161046a565b92506104f1602085016104ac565b91506104ff604085016104ac565b90509250925092565b602080825282518282018190526000919060409081850190868401855b8281101561056c578151805160020b855286810151600f0b878601528501516fffffffffffffffffffffffffffffffff168585015260609093019290850190600101610525565b5091979650505050505050565b60006020828403121561058b57600080fd5b815162ffffff8116811461032c57600080fd5b8051600281900b81146104be57600080fd5b805161ffff811681146104be57600080fd5b600080600080600080600060e0888a0312156105dd57600080fd5b87516105e88161046a565b96506105f66020890161059e565b9550610604604089016105b0565b9450610612606089016105b0565b9350610620608089016105b0565b925060a088015160ff8116811461063657600080fd5b60c0890151909250801515811461064c57600080fd5b8091505092959891949750929550565b80516fffffffffffffffffffffffffffffffff811681146104be57600080fd5b60006020828403121561068e57600080fd5b61032c8261065c565b634e487b7160e01b600052604160045260246000fd5b6040516060810167ffffffffffffffff811182821017156106d0576106d0610697565b60405290565b604051601f8201601f1916810167ffffffffffffffff811182821017156106ff576106ff610697565b604052919050565b6000602080838503121561071a57600080fd5b825167ffffffffffffffff8082111561073257600080fd5b818501915085601f83011261074657600080fd5b81518181111561075857610758610697565b610766848260051b016106d6565b8181528481019250606091820284018501918883111561078557600080fd5b938501935b828510156107ed5780858a0312156107a25760008081fd5b6107aa6106ad565b6107b38661059e565b81528686015180600f0b81146107c95760008081fd5b8188015260406107da87820161065c565b908201528452938401939285019261078a565b50979650505050505050565b634e487b7160e01b600052601160045260246000fd5b60008160010b617fff8103610826576108266107f9565b60010192915050565b60008219821115610842576108426107f9565b500190565b634e487b7160e01b600052603260045260246000fd5b60006000198203610870576108706107f9565b506001019056fea2646970667358221220b78d1ded847e608708fcd1e235c31fedf72953e6749995110963d235a5cf904864736f6c634300080e0033",
  "devdoc": {
    "kind": "dev",
    "methods": {},
    "title": "MulticallTickLens - Aggregate results from multiple TickLens function calls",
    "version": 1
  },
  "userdoc": {
    "kind": "user",
    "methods": {},
    "version": 1
  },
  "storageLayout": {
    "storage": [
      {
        "astId": 2751,
        "contract": "contracts/MulticallTickLens.sol:MulticallTickLens",
        "label": "lens",
        "offset": 0,
        "slot": "0",
        "type": "t_contract(ITickLens)1751"
      }
    ],
    "types": {
      "t_contract(ITickLens)1751": {
        "encoding": "inplace",
        "label": "contract ITickLens",
        "numberOfBytes": "20"
      }
    }
  }
}