{
  "address": "0xACb6b805f86D68900e3C5eabe871eAe8687E4a16",
  "abi": [
    {
      "inputs": [
        {
          "internalType": "address",
          "name": "_lens",
          "type": "address"
        }
      ],
      "stateMutability": "nonpayable",
      "type": "constructor"
    },
    {
      "inputs": [
        {
          "internalType": "address",
          "name": "pool",
          "type": "address"
        },
        {
          "internalType": "int16",
          "name": "tickBitmapIndexStart",
          "type": "int16"
        },
        {
          "internalType": "int16",
          "name": "tickBitmapIndexEnd",
          "type": "int16"
        }
      ],
      "name": "getPopulatedTicks",
      "outputs": [
        {
          "components": [
            {
              "internalType": "int24",
              "name": "tick",
              "type": "int24"
            },
            {
              "internalType": "int128",
              "name": "liquidityNet",
              "type": "int128"
            },
            {
              "internalType": "uint128",
              "name": "liquidityGross",
              "type": "uint128"
            }
          ],
          "internalType": "struct ITickLens.PopulatedTick[]",
          "name": "populatedTicks",
          "type": "tuple[]"
        }
      ],
      "stateMutability": "view",
      "type": "function"
    }
  ],
  "transactionHash": "0x3afd7a7ca464889ad6bb1a8761beb6ad7c69e13b6026cdde12e8a53d7872634c",
  "args": [
    "0xbfd8137f7d1516d3ea5ca83523914859ec47f573"
  ],
  "numDeployments": 1,
  "solcInputHash": "925454de23af7966597bbf39a0dbdc3b",
  "bytecode": "0x608060405234801561001057600080fd5b5060405161062e38038061062e83398101604081905261002f91610054565b600080546001600160a01b0319166001600160a01b0392909216919091179055610084565b60006020828403121561006657600080fd5b81516001600160a01b038116811461007d57600080fd5b9392505050565b61059b806100936000396000f3fe608060405234801561001057600080fd5b506004361061002b5760003560e01c8063f45e81ec14610030575b600080fd5b61004361003e366004610292565b610059565b60405161005091906102f0565b60405180910390f35b60605b8160010b8360010b1361013d57600080546040517f351fb47800000000000000000000000000000000000000000000000000000000815273ffffffffffffffffffffffffffffffffffffffff8781166004830152600187900b60248301529091169063351fb4789060440160006040518083038186803b1580156100df57600080fd5b505afa1580156100f3573d6000803e3d6000fd5b505050506040513d6000823e601f3d908101601f1916820160405261011b91908101906103d1565b90506101278282610144565b9150508280610135906104fb565b93505061005c565b9392505050565b6060600082518451610156919061051c565b67ffffffffffffffff81111561016e5761016e610361565b6040519080825280602002602001820160405280156101b957816020015b604080516060810182526000808252602080830182905292820152825260001990920191018161018c5790505b50905060005b8451811015610212578481815181106101da576101da610534565b60200260200101518282815181106101f4576101f4610534565b6020026020010181905250808061020a9061054a565b9150506101bf565b60005b84518110156102715784816102298161054a565b92508151811061023b5761023b610534565b602002602001015183838061024f9061054a565b94508151811061026157610261610534565b6020026020010181905250610215565b5090949350505050565b8035600181900b811461028d57600080fd5b919050565b6000806000606084860312156102a757600080fd5b833573ffffffffffffffffffffffffffffffffffffffff811681146102cb57600080fd5b92506102d96020850161027b565b91506102e76040850161027b565b90509250925092565b602080825282518282018190526000919060409081850190868401855b82811015610354578151805160020b855286810151600f0b878601528501516fffffffffffffffffffffffffffffffff16858501526060909301929085019060010161030d565b5091979650505050505050565b634e487b7160e01b600052604160045260246000fd5b6040516060810167ffffffffffffffff8111828210171561039a5761039a610361565b60405290565b604051601f8201601f1916810167ffffffffffffffff811182821017156103c9576103c9610361565b604052919050565b600060208083850312156103e457600080fd5b825167ffffffffffffffff808211156103fc57600080fd5b818501915085601f83011261041057600080fd5b81518181111561042257610422610361565b610430848260051b016103a0565b8181528481019250606091820284018501918883111561044f57600080fd5b938501935b828510156104d95780858a03121561046c5760008081fd5b610474610377565b85518060020b81146104865760008081fd5b815285870151600f81900b811461049d5760008081fd5b818801526040868101516fffffffffffffffffffffffffffffffff811681146104c65760008081fd5b9082015284529384019392850192610454565b50979650505050505050565b634e487b7160e01b600052601160045260246000fd5b60008160010b617fff811415610513576105136104e5565b60010192915050565b6000821982111561052f5761052f6104e5565b500190565b634e487b7160e01b600052603260045260246000fd5b600060001982141561055e5761055e6104e5565b506001019056fea26469706673582212208dfa53c30582fe67a34192cd03d1c78684fd0c21a10c2c1a0080bab262ba1d9964736f6c63430008090033",
  "devdoc": {
    "kind": "dev",
    "methods": {},
    "title": "MulticallTickLens - Aggregate results from multiple TickLens function calls",
    "version": 1
  },
  "userdoc": {
    "kind": "user",
    "methods": {},
    "version": 1
  },
  "storageLayout": {
    "storage": [
      {
        "astId": 31,
        "contract": "contracts/MulticallTickLens.sol:MulticallTickLens",
        "label": "lens",
        "offset": 0,
        "slot": "0",
        "type": "t_contract(ITickLens)23"
      }
    ],
    "types": {
      "t_contract(ITickLens)23": {
        "encoding": "inplace",
        "label": "contract ITickLens",
        "numberOfBytes": "20"
      }
    }
  }
}